:020000040800F2
:10000000680D00206902000861390008792B00089A
:1000100091350008CD040008A1450008000000004B
:10002000000000000000000000000000FD3F00088C
:10003000F304000800000000AD3D00088540000802
:10004000830200088302000883020008830200087C
:10005000830200088302000883020008830200086C
:10006000830200088302000883020008830200085C
:10007000830200088302000883020008830200084C
:10008000830200088302000883020008830200083C
:10009000830200088302000883020008830200082C
:1000A000830200088302000883020008830200081C
:1000B000830200083141000883020008830200081F
:1000C00083020008830200088302000883020008FC
:1000D00083020008830200088302000883020008EC
:1000E00083020008830200088302000883020008DC
:1000F00083020008830200088302000883020008CC
:1001000083020008830200088302000883020008BB
:1001100083020008830200088302000883020008AB
:10012000830200088302000883020008830200089B
:10013000830200088302000883020008830200088B
:10014000830200088302000883020008830200087B
:10015000830200088302000883020008830200086B
:10016000830200088302000883020008830200085B
:1001700083020008830200088302000800000000D8
:10018000830200088302000800F002F800F05CF827
:100190000AA090E8000C82448344AAF10107DA45E2
:1001A00001D100F051F8AFF2090EBAE80F0013F0D8
:1001B000010F18BFFB1A43F001031847A46F00009A
:1001C000C46F00000A444FF0000C10F8013B13F01C
:1001D000070408BF10F8014B1D1108BF10F8015BA0
:1001E000641E05D010F8016B641E01F8016BF9D193
:1001F00013F0080F1EBF10F8014BAD1C0C1B09D1EA
:100200006D1E58BF01F801CBFAD505E014F8016B5B
:1002100001F8016B6D1EF9D59142D6D370470000ED
:100220000023002400250026103A28BF78C1FBD8FF
:10023000520728BF30C148BF0B6070471FB506F09A
:1002400064FA1FBD10B510BD00F0E2F81146FFF7CB
:10025000F5FF05F0BDFA00F000F903B4FFF7F2FF77
:1002600003BC00F003F90000094880470948004733
:10027000FEE7FEE7FEE7FEE7FEE7FEE7FEE7FEE756
:10028000FEE7FEE704480549054A064B70470000B3
:10029000214100088901000868070020680D00203E
:1002A000680900206809002053EA020C00F0698008
:1002B0002DE9F04B4FF00006002B1FBFB3FA83F57A
:1002C00003FA05F424FA05F65E4012BF1643B2FAAB
:1002D00082F502FA05F4C5F120051EBF22FA05FCDD
:1002E00044EA0C04203556EA044C4FEA144418BF83
:1002F000641C4FF000084FF00009904271EB030CB2
:1003000039D3002919BFB1FA81F701FA07F6B0FA1B
:1003100080F700FA07F6C7F120071EBF20FA07FC96
:1003200046EA0C062037B6FBF4FCA7EB0507103FA6
:1003300007F01F0BCBF120060CFA0BFB2CFA06F68C
:1003400044BFB3460026202FA4BF5E464FF0000BEB
:100350005BEA060C08BF4FF0010B19EB0B09ABFB76
:10036000027C48EB0608C01B06FB02CC0BFB03CC4F
:1003700071EB0C01C1E70B46024641464846BDE819
:10038000F08B13B54FF000004FF00001AFF3008089
:10039000BDE81C4070474FF0000200B5134694467C
:1003A0009646203922BFA0E80C50A0E80C50B1F1CD
:1003B0002001BFF4F7AF090728BFA0E80C5048BFE1
:1003C0000CC05DF804EB890028BF40F8042B08BF7F
:1003D000704748BF20F8022B11F0804F18BF00F87B
:1003E000012B704770477047704710B500F008F850
:1003F000006810BD10B5044600F002F8046010BD9E
:100400000048704708070020004870470807002090
:100410007546FFF7F9FFAE4605006946534620F0E2
:100420000700854618B020B5FFF72CFFBDE8204037
:100430004FF000064FF000074FF000084FF0000BA0
:1004400021F00701AC46ACE8C009ACE8C009ACE853
:10045000C009ACE8C0098D46704710B50446AFF33B
:1004600000802046BDE81040FFF7F7BE0149182084
:10047000ABBEFEE726000200704700000E4910B533
:10048000002008700D4801F0F3FB05F06DFA02F052
:10049000E9FD03F0DFF902F0C9FD02F055FD04F0BB
:1004A0007EF8074802F0D8F9064802F0D5F9BDE811
:1004B0001040054802F0D0B9080000204004002098
:1004C000E80400207805002030050020FEE700B594
:1004D0000246B0EE402A084605F020FA91ED0A0ADD
:1004E000104682ED000AB0EE420A5DF804EB05F01A
:1004F00015BA704772B6FEE7064A136823F44073D4
:10050000136013681360136843F0010313600170F4
:1005100070470000103C0240094910B50C6824F4F3
:1005200040740C600C6844F440740C600C6844F037
:1005300001040C600260BFF36F8F436010BD0000C8
:10054000103C0240074A136823F440731360136899
:1005500043F480731360136843F001031360018058
:1005600070470000103C0240074A136823F44073B0
:100570001360136843F400731360136843F00103BE
:100580001360016070470000103C02401749086882
:10059000C206174805D5C26942F01002C261102296
:1005A0000A600A68920605D5C26942F00802C26173
:1005B00020220A600A68520605D5C26942F0040288
:1005C000C26140220A600A68120605D5C26942F07B
:1005D0000202C26180220A600A68920705D5C269D8
:1005E00042F02002C2610220086070470C3C0240C9
:1005F0004806002070B5114904460020C86101F08A
:1006000023F806460E4D09E0601C07D024B101F026
:100610001BF8801BA04201D9032070BD2868C003CD
:10062000F2D42868C00701D001202860286810F0A3
:10063000F200F2D0FFF7AAFF012070BD48060020AB
:100640000C3C024010B500F0E7FE0349F1200860C1
:10065000BDE8104000F098BE0C3C02402DE9F0418E
:100660000D46064600F0D8FE0E49F12008600E4FF8
:100670003846FFF7E7FF0D4C27600CE0B6F9002085
:100680000120D317216800F089FE00B1FEE7206841
:10069000801CB61C20606D1EEDB2EFD2BDE8F041AB
:1006A00000F072BE0C3C0240007C000830000020CC
:1006B0002DE9F0478E4C2DED028BB0EE408A60782C
:1006C000DFF830924FF0FF0A012809D08A4E8B4D97
:1006D0000B280CD01F2819D0FF286FD0504604E0FB
:1006E00099F80000002801D00B206070EFE08048EE
:1006F0000B21103005F0F6F89FED810A1F2085EDE3
:10070000090A85ED000A86ED020AEEE77D49706868
:100710007D4F884207D87D4A904204DC3068884289
:1007200001D8904206DDB888B0F5966F02D9002155
:1007300089F8001039897648C82905D196219FED9E
:10074000750A616080ED000A7349804691ED000AE8
:1007500080ED090AB0EE480A6D4805F0DFF8D8EDE3
:100760000A0A6E4910EE900A884202D9DFED6C0A3F
:100770000CE0D8ED0A0A6B4A10EE901A40469142FE
:1007800002DDDFED690A01E0D0ED0A0A6748684939
:10079000C0ED000A91ED000A80ED090AB0EE480AAA
:1007A00005F0BCF8F88840F2A461884207D9D5ED7D
:1007B000000A94ED030A30EEC00A0AE091E040F22C
:1007C0001451884207D295ED000AD4ED030A30EEA9
:1007D000200A85ED000A7888DFF85881A0F2DC5005
:1007E000404200EE900AB8EEE01AD4ED020A21EE83
:1007F000200A88ED000A38884F4FA0F2DC504042B2
:1008000001EE100A3846B8EEC11A21EE200A87ED33
:10081000000A96ED010A88ED090A96ED000A87EDB7
:10082000090A96ED020A85ED090AB0EE480A05F0BC
:1008300075F8B0EE480A404605F070F8B0EE480A88
:100840002E4805F06BF83D4B97ED0A0A3C4A83EDC4
:10085000000A98ED0A0A3C4882ED000A95ED0A0A62
:10086000384D85ED000AB0F9061000EE901A3749B0
:10087000B8EEE00AD1ED000A20EE200A83ED090A65
:10088000B0F9083000EE903AB8EEE00AD1ED000A77
:1008900020EE200A82ED090AB0F90A0000EE900A63
:1008A0002648B8EEE00AD1ED000A20EE200A85EDD8
:1008B000090AB0EE480A05F031F8B0EE480A2048BF
:1008C00005F02CF8B0EE480A284605F027F899F80C
:1008D0000000002801D184F801A0BDEC028BBDE826
:1008E000F08703480B21103004F0FCFF0120FCE6E8
:1008F000080100200800002054010020AC03002063
:1009000000000000000048C26001002000004842D2
:1009100040020020000016432C000020000048C3C5
:10092000000048C300004843000048437402002010
:100930001C0000204403002078030020A8020020AF
:10094000DC0200201003002048010020446F000852
:100950002DE9F05F6E486F4C40F2A4622DED028BE2
:10096000B0EE408AC188D4ED030A6B4D914204D9A0
:1009700095ED000A30EE600A07E040F21452914211
:1009800005D295ED000A30EE200A85ED000A2178A7
:10099000624F012908D0624E0B290BD01F2918D0B5
:1009A000FF297DD0FF2003E03878002801D00B20FC
:1009B00020709CE057480B21103004F093FF9FED0E
:1009C000590A1F2085ED090A85ED000A86ED020A05
:1009D000EEE796ED011A524B11EE102A5249D3ED73
:1009E000000A8A420CD811EE103A504A934207DCB2
:1009F00010EE903A8B4203D810EE901A914205DD2A
:100A00008188B1F5966F01D9002139704188D4ED04
:100A1000021AA1F2DC51494200EE101ADFF81081EF
:100A2000DFF81091B8EEC00ADFF814B1DFF814A1B6
:100A300020EE210A88ED000A0088A0F2DC50404236
:100A400000EE100A3C48B8EEC00A20EE210A89EDFB
:100A5000000AB0F9061000EE101A3849B8EEC00AC4
:100A6000D1ED001A20EE210A8BED090AB0F9082019
:100A700000EE102AB8EEC00A20EE210A8AED090A1B
:100A8000B0F90A0000EE100A2F48B8EEC00A20EEB6
:100A9000210A80ED090A88ED091AC9ED090A00E06A
:100AA0002EE096ED020A484685ED090AB0EE480AA6
:100AB00004F034FF99ED0A0A58468BED000AB0EEB7
:100AC000480A04F02BFFB0EE480A404604F026FF27
:100AD00098ED0A0A50468AED000AB0EE480A04F082
:100AE0001DFFB0EE480A0C491748FFF7F0FC3878B4
:100AF000002801D1FF202070BDEC028BBDE8F09FE3
:100B000004480921103004F0EDFE012050E70000F8
:100B10006001002008010020AC0300200800002034
:100B20005401002000000000000048C200004842BC
:100B3000440300207803002048010020446F00088F
:100B4000A8020020DC020020100300202DE9F04F55
:100B5000DFF810B405462DED088BF0EE409AB6EEA6
:100B6000000A89B029EE809A9BF800008846FE4969
:100B7000F028B1F90090B1F90470B1F9026003D81E
:100B8000401C8BF800009FE000EE109AB8EEC00AFF
:100B90009FEDF68A20EE080A10EE100A05F044FDDB
:100BA0009FEDF3AB53EC1A2B05F07EFA9FEDF2BBF1
:100BB00053EC1B2B05F078FA04F0BCFF00EE106A32
:100BC000CBF804000190B8EEC00A5C4620EE080A9B
:100BD00010EE100A05F028FD53EC1A2B05F064FA0C
:100BE00053EC1B2B05F060FA04F0A4FF00EE107A22
:100BF000A060B8EEC00ADFEDE20A009030EE600AB5
:100C000020EE080A10EE100A05F00EFD53EC1A2B28
:100C100005F04AFA53EC1B2B05F046FA04F08AFF64
:100C20008246E06005F000FD9FEDD68B53EC182B5B
:100C300005F03AFA41EC1A0B206905F0F5FC53EC8B
:100C40001A2B04F0A9FF04F075FF2061019805F04C
:100C5000EBFC53EC182B05F027FA41EC1A0B206A39
:100C600005F0E2FC53EC1A2B04F096FF04F062FF4F
:100C70002062009805F0D8FC53EC182B05F014FA0C
:100C800041EC1A0B606A05F0CFFC53EC1A2B04F010
:100C900083FF04F04FFF0AEE100A504605F0C4FC33
:100CA00053EC182B05F000FA41EC180B606905F0C5
:100CB000BBFC53EC182B04F06FFF04F03BFFB1EECC
:100CC0004A0A606184ED090AA64CB0EE008A2C3411
:100CD000F7EE008A94ED010AD4ED030A94ED021AAE
:100CE00020EE200AD4ED000A00EEC10A20EE080A28
:100CF0008DED000A94ED000AD4ED010A94ED031A7B
:100D000020EE200AD4ED020A00EE810A20EE080A45
:100D10008DED010A94ED010AD4ED010A94ED021A59
:100D200020EE200AD4ED020A00EE810AF0EE680AF5
:100D300040EE480A00EE109AB8EEC00ACDED020A65
:100D400000EE906A20EE000AB8EEE01A00EE906A1B
:100D5000F8EEE00A01EE200A00EE907AB8EEE01A12
:100D600000EE907AF8EEE00A01EE200A03F05CF85B
:100D70008BED0A0AB5F90000594600EE900AF8EE2C
:100D8000E00A60EE800ACDED030AB5F9020000EE3C
:100D9000900AF8EEE00A60EE800ACDED040AB5F99B
:100DA000040000EE900A7948F8EEE00A20EE800A8E
:100DB0008DED050A9DED040ADDED020A9DED011A97
:100DC00020EE200ADDED050A00EEC10A8DED060ACF
:100DD0009DED050ADDED000A9DED021A20EE200AC8
:100DE000DDED030A00EEC10A8DED070A9DED030A51
:100DF000DDED010A9DED001A20EE200ADDED040A6A
:100E000000EEC10A8DED080AD0ED000A9DED061A2C
:100E100091ED070A41EE000AC0ED000AD0ED010A8B
:100E20009DED071A41EE000AC0ED010AD0ED020A5D
:100E30009DED081A41EE000AC0ED020AB5F9062040
:100E40009DED061A00EE102A514AB8EEC00AD2ED06
:100E5000000A60EE200A9BED060A40EE010A90EDC2
:100E6000001A70EE810ACDED000AB5F9081092ED76
:100E7000001A00EE901AF8EEE00A60EE810A9DED8D
:100E8000071A40EE010A90ED011A70EE810ACDEDCD
:100E9000010AB5F90A1092ED001A00EE901AF8EE68
:100EA000E00A60EE810A9DED081A40EE010A90ED1D
:100EB000020A30EE800A8DED020A94ED010ADDEDA2
:100EC000000A9DED011ADDED011A20EEC00AD4EDF5
:100ED000020A9DED012ADDED002A00EEC10AD4EDE3
:100EE000030A9DED021A00EEC10A9DED001A60EEA4
:100EF000090A94ED000A20EE010A94ED031A01EEAE
:100F0000610A94ED021ADDED021A01EE210A94ED58
:100F1000031ADDED001A21EE211AD4ED001A20EE9D
:100F2000090A01EE821AD4ED011A9DED022A01EEA2
:100F3000C21AD4ED011A9DED012A61EE821A94EDD8
:100F4000022A21EE091A42EE621A94ED002ADDED22
:100F5000022A42EE221A94ED002A72EE200A61EE75
:100F6000891A17E0CC000020480100200000003959
:100F70009A999999999923400000000000005940DE
:100F800000000046FA7E6ABC7493683F9C0600200D
:100F9000486F0008C4ED000AD4ED010A30EE800A63
:100FA00084ED010A94ED020A30EE010A84ED020A92
:100FB00094ED030A30EE210A84ED030A94ED000A51
:100FC000D4ED000A94ED011A20EE200AD4ED010AB6
:100FD00000EE810AD4ED020A94ED021A00EE810AB5
:100FE000D4ED030A94ED031A00EE810A02F01CFF0F
:100FF000D4ED000A60EE800AC4ED000AD4ED010AC7
:1010000060EE800AC4ED010AD4ED020A60EE800AA7
:10101000C4ED020AD4ED030A20EE800A84ED030A2F
:10102000B5F90A0000EE100A4248B8EEC00AD0ED49
:10103000000A20EE200A10EE100AB0F17E5F04DCF8
:1010400010EE100A10F1814F05D9D8ED020A40EEDA
:10105000290AC8ED020A384D286805F0E5FA94ED32
:10106000000AD4ED020A94ED031A20EE080A41ECBE
:10107000190B20EE200AD4ED010A60EE880A00EE7A
:10108000C10A10EE100A05F0CFFA41EC100B03F084
:10109000B3FA53EC192B51EC100B05F005F804F0E2
:1010A00049FDC8F80400286805F0BEFA94ED010A6D
:1010B000D4ED010A41EC190B20EE080A40EE608ADB
:1010C00094ED020AD4ED020A20EE080A40EE608A8E
:1010D00018EE900A05F0A8FA94ED020AD4ED030A7E
:1010E00094ED011A20EE080A41EC1A0B20EE200ABA
:1010F000D4ED000A60EE880A00EE810A10EE100AB4
:1011000005F092FA41EC100BB0EE4A1AF0EE6A1AB2
:1011100003F08EFD53EC192B51EC100B04F0C4FFBF
:1011200004F008FDC8F8000009B0BDEC088BBDE86C
:10113000F08F0000446F0008406F000810B50D49A3
:101140004FF0E02308689A690C68A042FAD10A4976
:101150000B68096803EB4304C4EBC313C2EBC3027F
:10116000B2FBF1F100EB4002C2EBC01001EBC0009A
:1011700010BD000004000020000000202DE9F04117
:1011800002212DED068B644801F05AFC04F078FF33
:101190009FED621B53EC112B04F086FF04F0CAFC98
:1011A000604C614DA061D5ED000A9FED60AA80EE14
:1011B0008A0A10EE100A05F037FA9FED5D9B53EC9A
:1011C000192B04F071FF41EC100B03F029FEF0EE37
:1011D000608AD5ED010AB0EE408A80EE8A0A10EEF0
:1011E000100A05F021FA53EC192B04F05DFF41ECD5
:1011F000100B03F015FEB0EE409AF0EE609AA06975
:1012000005F012FA53EC192B04F04EFF53EC182B97
:1012100004F04AFF04F08EFC474D484E0127A061C0
:10122000A84201DAB04204D3677094ED030A84ED5A
:10123000060A94ED068A94ED030A38EE400A10EE91
:10124000100A05F0F1F99FED3E1B53EC112B04F051
:101250004BFD04F06FFC20616078012855D084EDCF
:10126000038A94ED040A384801F0BCFE10EE100A1F
:1012700084ED040AA84203DA10EE100AB04203D348
:1012800094ED050A84ED040A10EE100A054605F0F7
:10129000CBF99FED2E1B53EC112B04F005FF2D4EC7
:1012A00094ED010A41EC180BD6ED000A30EE200A4D
:1012B00010EE100A05F0B8F99FED271B53EC112B27
:1012C00004F0F2FE53EC182B04F066FC04F032FC40
:1012D00000EE100ADFED220A84ED020A1A48C6ED7C
:1012E000000A1838656101F07DFE84ED020A84ED84
:1012F000010A94ED060AB5EEC00AF1EE10FA00D02C
:101300002770BDEC068BBDE8F0810020607094ED85
:10131000050A84ED040AA6E7780500209CC420B0E5
:101320007268913F14000020540100200000B44373
:101330004AD8124DFB2109400000C8430000C8C331
:10134000FA7E6ABC7493683FF80300200000000036
:101350000000D03FDC000020000000000000E83F5B
:101360000000000070B5044600F06EF90546601CF0
:1013700002D004480078044400F066F9401BA04203
:10138000FAD370BD380000200348016841F00041E5
:101390000160002070470000103C02402DE9F0473A
:1013A0001B4E05461446307E1F468946012808D04C
:1013B000012030764CF250384046FFF71BF918B147
:1013C00014E00220BDE8F0879DB1012D16D0022D5A
:1013D00019D022463B464846FFF79EF84046FFF7A5
:1013E00009F90C490A6822F001020A6000213176ED
:1013F000E8E7E1B24846FFF77FF8EFE7A1B24846D9
:10140000FFF7A0F8EAE721464846FFF7ADF8E5E721
:1014100048060020103C0240074900200A68002AC4
:1014200009DA054A054B0C3A1360054B136009684D
:10143000002900DA01207047103C02402301674573
:10144000AB89EFCD2DE9F84FDFF8BCA100220125D3
:1014500003264FF00F090AF1040BAAF1040E00BF96
:101460000B6805FA02F42340A34270D10F7907F00C
:101470000307012F01D0022F16D187684FEA4208D7
:1014800006FA08FC27EA0C07D1F80CC00CFA08FC95
:101490004CEA070CC0F808C04768A7430C79C4F3AE
:1014A000001494403C4344600C79E443A4070AD000
:1014B000C4684FEA420C06FA0CF7BC438F6807FA7F
:1014C0000CF72743C7600C7904F00304022C12D1F7
:1014D000D40800EB840CDCF820405707FF0E09FA13
:1014E00007F824EA0804D1F8108008FA07F848EA57
:1014F0000408CCF8208004684FEA420C06FA0CF786
:10150000BC430F7907F0030707FA0CF7274307607E
:101510004C6814F4403F70D03C4C276847F4804737
:101520002760246822F0030704F480440094384CB8
:1015300007EB040CDCF8084897074FEA177809FA1C
:1015400008F7BC43334FB84202D1002724E054E0EF
:10155000314FB84201D101271EE0304FB84201D1CE
:10156000022719E02E4FB84201D1032714E02D4F76
:10157000B84201D104270FE02B4FB84201D1052713
:101580000AE02A4FB84201D1062705E0284FB842A9
:1015900001D1072700E0082707FA08F72743CCF80E
:1015A0000878DAF800405746D1F804C09C435FEA57
:1015B000CC2C00D51C433C60DBF800405F46D1F8E2
:1015C00004C09C435FEA8C2C00D51C433C60DEF8D1
:1015D00000407746D1F804C09C435FEA8C3C00D5BC
:1015E0001C433C60084F083F3C68D1F804C09C4352
:1015F0005FEACC3C00D51C433C60521C102AFFF42F
:101600002FAFBDE8F88F0000083C0140443802408D
:101610000030014000000240000402400008024087
:10162000000C02400010024000140240001802406A
:10163000001C02400069084000D0012070470AB138
:10164000816170470904FBE701488068704700002A
:101650003800002070B5040025D094F83D00002526
:1016600020B984F83C50204600F002FB242084F886
:101670003D002068016821F00101016020680168D7
:1016800041F4004101602068016821F400410160DB
:1016900000F0B6FC4D4A6168914201D84C4900E027
:1016A0004C49884201D2012070BD4B492368B0FBF0
:1016B000F1F15E6826F03F060E435E606368934278
:1016C00006D94FF4967359434FF47A73B1FBF3F193
:1016D0002368491C1E6A26F03F063143196261687F
:1016E000914210D84900401EB0FBF1F2521CC2F3E7
:1016F0000B02042A01D2042022E0B0FBF1F0401CCE
:10170000C0F30B001CE0A268F2B301EBC10303EBD2
:101710000116431EB3FBF6F35B1C43F480431B0529
:1017200049D092B301EBC10202EB0111401EB0FBA4
:10173000F1F0401CC0F30B0040F4804040F4004046
:101740002168CA694CF6FF739A431043C861D4E913
:10175000071001432068026822F0C00211430160B3
:10176000D4E9030101432068826848F2FF339A43B9
:1017700011438160D4E9050108432168CA6822F059
:10178000FF021043C86001E00EE016E02068016827
:1017900041F0010101602564202084F83D002563AB
:1017A00084F83E50002070BD01EB4106431EB3FBA0
:1017B000F6F35B1CB3E70120C2E701EB4101401ED9
:1017C000B0FBF1F0401CC0F30B00B7E7A0860100AE
:1017D00080841E0000093D0040420F002DE9FF4FAC
:1017E00081B089460446FFF72FFF054694F83D0077
:1017F0004FF0000820287DD11923012250492046AE
:10180000009501F0C9FA002874D194F83C00012831
:1018100070D0012084F83C0020680168C90703D11A
:10182000016841F0010101602068016821F4006154
:101830000160242084F83D00002626644148E062CF
:101840004FF0011B20272068016841F4807101607E
:101850000095002259462046049B01F09DFA50B1A4
:1018600020680068C00502D54FF400702064032092
:1018700005B0BDE8F08F216809F0FE000861FFF7B0
:10188000E3FE2168054648694969C0F34000C1F399
:1018900080214FF0A00A0FE0FFF7D6FE411B04980D
:1018A000814200D808B984F83DA021684869496997
:1018B000C0F34000C1F3802194F83D20A02A02D05B
:1018C00008B90029E8D084F83D7020684169C9430F
:1018D000890716D4016841F40071016020684169EC
:1018E00080691923012216492046009501F054FA17
:1018F000B8B900E021E084F83D7084F83C60002035
:10190000B6E7016841F40071016021686FF48060FE
:101910004861192301220A492046009501F03CFA4A
:1019200008B10120A4E7039808F1010880458AD393
:1019300084F83D7084F83C60F3E7022098E70000EB
:10194000020010000000FFFF2DE9FF4F83B09A4610
:10195000DDE9119793460446DDF84080FFF774FEF9
:10196000054694F83D00202870D1192301227149C1
:101970002046009501F010FA0028F5D194F83C00BB
:10198000012863D0012084F83C0020680168C90761
:1019900003D1016841F0010101602068016821F470
:1019A00000610160222084F83D00402084F83E0060
:1019B00000262664C4F82480A4F82A90608D20852F
:1019C0005D48E062CDE9007553465A4620460499C9
:1019D00001F0EAF800287CD1208DD0B1012821D077
:1019E0000228206824D0416980690090208D032856
:1019F00069D801282BD0514902283B464FF00002FC
:101A0000009559D08846204601F0C6F9002860D1DB
:101A10003CE02068416981690091016841F40071EE
:101A2000016077E02068016821F480610160F0E7DF
:101A3000016821F4806101602068016841F400615F
:101A40000160206841698069009063E06FE02A4688
:101A50003946204601F01FFA98BB20680069616A88
:101A600008704EE02068016841F400710160206850
:101A70000069616A0870606A401C6062218D491EBD
:101A80002185618D491E6185216838E020680168E3
:101A900021F48061016020680069616A0870606AF1
:101AA000401C6062208D401E2085608D401E608538
:101AB0003B46002241460095204601F06DF900B9F1
:101AC000D0E706E0FFE72A463946204601F0E3F971
:101AD00018B1012007B0BDE8F08F20680069616A85
:101AE0000870606A401C6062218D491E2185618DED
:101AF000491E618521684A69D24352070AD409699F
:101B00000170606A401C6062208D401E2085608DDF
:101B1000401E6085208D00287FF468AF202084F867
:101B20003D0084F83E6084F83C600020D2E702204B
:101B3000D0E70000020010000000FFFF04000100D9
:101B40002DE9FF4F83B09A46DDE91197934604468D
:101B5000DDF84080FFF778FD054694F83D00202829
:101B60007FD11923012240492046009501F014F944
:101B7000002876D194F83C00012872D0012084F826
:101B80003C0020680168C90703D1016841F00101E8
:101B900001602068016821F400610160212084F85F
:101BA0003D00402084F83E0000262664C4F82480CE
:101BB000A4F82A90608D20852C48E062CDE900755C
:101BC00053465A462046049901F06CF870B930E04B
:101BD0002A463946204601F091F958B1206C042874
:101BE00004D12068016841F400710160012007B050
:101BF000BDE8F08F606A216800780861606A401C67
:101C00006062218D491E89B22185628D521E6285D6
:101C100022685369DB435B070BD469B1007810611C
:101C2000606A401C6062208D401E2085608D401ED1
:101C30006085208D0028CBD12A463946204601F008
:101C400085F80028CAD154F83D0B016841F40071B1
:101C50000160202004F81E09E67766770020C6E7B9
:101C6000FFE70220C3E70000020010000000FFFFB2
:101C70002DE9F04186B0044614216846FEF78BFB3F
:101C80002F4A2168DFF8BC8000242E481225032645
:101C9000042708F1100891421CD1016841F00201AB
:101CA0000160006802AA00F002000590B002CDE9D0
:101CB000000582E8D00069462348FFF7C3FBD8F847
:101CC000001041F48001C8F80010D8F8000000F4BA
:101CD000800031E01D4A91422FD1016841F004019A
:101CE0000160016801F004010591016841F0010102
:101CF00001600068694600F0010005905015CDE9CB
:101D0000000502AA124882E8D000FFF79BFB4FF4BF
:101D10008070CDE9000502AA694682E8D0000D482E
:101D2000FFF790FBD8F8001041F40001C8F800104C
:101D3000D8F8000000F40000059006B0BDE8F0817E
:101D4000005800403038024000040240005C00406F
:101D500000080240000002400248816802781144F5
:101D600081607047380000200B4810B5016841F4CD
:101D700000710160016841F480610160016841F413
:101D800080710160032000F06FF80F2000F006F86A
:101D900000F024F8002010BD003C024070B50D4D4D
:101DA00004464FF47A712878B1FBF0F00A490968CB
:101DB000B1FBF0F000F02CFB48B9102C07D2002248
:101DC0002146501E00F030F800206C6070BD0120EC
:101DD00070BD000038000020440000200A4808B50B
:101DE000016841F480410160006800F48040009087
:101DF0000548001F016841F080510160006800F053
:101E00008050009008BD000044380240002809DBE3
:101E100000F01F02012191404009800000F1E02004
:101E2000C0F8001170470000F0B40E4B1B680C4660
:101E3000C3F30223C3F10705042D00D90425191D9E
:101E4000072901D2002300E0DB1E012606FA05F176
:101E5000491E214099409E40761E16403143F0BCF9
:101E600002F0B7BB0CED00E0064900F0070208687D
:101E70004FF6FF03184040EA0220034A104308606F
:101E8000704700000CED00E00000FA052DE9F04776
:101E90000E46050065D0DFF81481D8F80000F7B2CF
:101EA00000F00700B04207D288F80070D8F80000B0
:101EB00000F00700B04254D128683D4C810712D58C
:101EC000400703D5206840F4E050206028780007E0
:101ED00003D5206840F4604020602068A96820F0A5
:101EE000F000084320602878C0072DD0304968688A
:101EF0000839012812D0022813D0032811D009680C
:101F0000890700292DDA216821F0030101432160AE
:101F1000FFF79AFB814641F2883A0EE0096889038F
:101F2000EFE709688901ECE7FFF78EFBA0EB0901F9
:101F3000514502D90320BDE8F0872068696800F0A8
:101F40000C00B0EB810FEFD1D8F80010404601F043
:101F50000701B14207D90770006800F00700B042DE
:101F600001D00120E7E72878400705D52068E96817
:101F700020F4E050084320602878000706D5206848
:101F8000296920F4604040EAC100206000F058F860
:101F90002168084AC1F30311515CC8400649086032
:101FA00006480068FFF7FAFE0020C4E7003C024044
:101FB000083802401E670008440000203C00002052
:101FC0000F2202600C4A136803F003034360136896
:101FD00003F0F0038360136803F4E053C3601268F6
:101FE0004FF4E05303EAD20202610448006800F0B3
:101FF000070008607047000008380240003C0240BB
:102000000448054900680968044AC1F38221515C0B
:10201000C840704744000020083802402E6700087E
:102020000448054900680968044AC1F34231515C1B
:10203000C840704744000020083802402E6700085E
:10204000154810B5006810F00C02144813D014495C
:10205000042A0FD0082A0ED10F4C241F22682368AF
:1020600002F03F025B0207D52068C0F38810A0FB96
:10207000010106E0084610BD2168C1F38811A1FBEB
:1020800000010023FEF710F92168C1F30141491C4A
:102090004900B0FBF1F010BD083802400024F40004
:1020A00040787D012DE9F84F04006ED02078DFF8EC
:1020B0004C93C007A9F104054AD009F10400016856
:1020C000C1F38101012908D00068C0F38100022812
:1020D0000AD1D9F80000400206D52868800337D518
:1020E00060680028E1D033E06068B0F5803F10D030
:1020F000B0F5A02F286810D020F480302860286820
:1021000020F4802028606068A8B1FFF79DFA064699
:102110000DE0286840F48030F4E740F48020286027
:10212000F7E700BFFFF790FA801B642873D8286890
:102130008003F7D50CE0FFF787FA064605E000BFFD
:10214000FFF782FA801B6428F0D828688003F7D450
:102150002078DFF8AC8280074FF0000A3ED5A74810
:10216000001D016811F00C0F08D00068C0F3810059
:1021700002280BD1D9F80000400207D42868800754
:1021800016D5E068012800D112E033E1E068B8B16B
:102190000120C8F80000FFF757FA064605E000BF27
:1021A000FFF752FA801B0228C0D828688007F7D5AD
:1021B0002868216920F0F80040EAC10028600DE09D
:1021C000C8F800A0FFF740FA064604E0FFF73CFA23
:1021D000801B02281FD828688007F7D420780007C2
:1021E00022D5864F87486169703771B1012101603E
:1021F000FFF72AFA064604E0FFF726FA801B0228BA
:1022000009D838688007F7D50EE0C0F800A0FFF7BE
:102210001BFA064605E082E0FFF716FA801B02284B
:102220007DD838688007F7D42078400768D5DFF874
:10223000CCB100270BF13C0BDBF80000C0000BD445
:10224000DBF8001041F08051CBF80010DBF8000003
:10225000012700F0805000906B4E3068C00510D40C
:10226000306840F480703060FFF7EEF9009005E0D0
:10227000FFF7EAF90099401A022850D83068C005E3
:10228000F6D55E4EA0686C3601280FD00528306860
:1022900010D020F001003060306820F00400306081
:1022A000A068B8B1FFF7D0F900900FE0306840F0B7
:1022B0000100F4E740F004003060F7E7FFF7C4F9ED
:1022C0000099411A41F28830814266D8306880070F
:1022D000F4D50EE0FFF7B8F9009007E0FFF7B4F986
:1022E0000099411A41F28830814256D830688007FF
:1022F000F4D42FB1DBF8001021F08051CBF800109E
:10230000A069C8B33D49091D0968C1F381010229CB
:102310004AD00228504607D0C8F8600000E03CE0F0
:10232000FFF792F904463BE04746C8F86000FFF724
:102330008BF9064605E000BFFFF786F9801B0228EF
:102340002BD828688001F7D4D4E907010843A16A93
:102350002E4A490802EB0141626A41EA82110843B0
:1023600094F82C1040EA0161C9F800100120386689
:10237000FFF76AF9044606E03EE000BFFFF764F9A4
:10238000001B022809D828688001F7D534E000BF77
:10239000FFF75AF9001B022802D90320BDE8F88F85
:1023A00028688001F4D427E00128F7D0D9F800008C
:1023B000E26900F4800191421CD1226A00F03F01E1
:1023C000914217D147F6C071626A0140B1EB821F9A
:1023D00010D1A26A4FF0FF3300F4403103EB5202F8
:1023E000B1EB024F06D194F82C1000F07060B0EB06
:1023F000016F01D00120D1E70020CFE7043802406F
:1024000000004742800E4742007000400000FFFF7E
:1024100010B5401EB0F1807F01D3012010BD4FF0F8
:10242000E02460610F21601702F0D3F80020A06162
:1024300007202061002010BD7047704770B590F8EC
:102440003C20012A32D0012480F83C40022280F84E
:102450003D2003685A689D6822F070060A6832437E
:102460005A60134B02689A4214D0B2F1804F11D0D7
:10247000104B9A420ED0104B9A420BD00F4B9A42FF
:1024800008D00F4B9A4205D00E4B9A4202D00E4B09
:102490009A4204D1496825F080031943916080F87D
:1024A0003D40002180F83C10084670BD022070BD00
:1024B000000001400004004000080040000C004003
:1024C00000040140004001400018004010B5040025
:1024D00003D094F83D0010B107E0012010BD0020AA
:1024E00084F83C00204600F01FF8022084F83D00EC
:1024F000211D206801F070FE012084F8460084F858
:102500003E0084F83F0084F8400084F8410084F8DD
:10251000420084F8430084F8440084F8450084F8BD
:102520003D00002010BD000008B500680B4988423E
:1025300012D10B48016841F00201016000680022DD
:1025400000F00200009011461D20FFF76DFCBDE871
:1025500008401D20FFF75ABC08BD000000040040E1
:102560004038024090F83D10012901D00120704709
:10257000022180F83D100168CA6842F00102CA6079
:1025800000681149884214D0B0F1804F11D00F4932
:1025900088420ED00E4988420BD00E49884208D09E
:1025A0000D49884205D00D49884202D00C49884225
:1025B00004D1816801F00701062903D0016841F0C8
:1025C000010101600020704700000140000400404C
:1025D00000080040000C00400004014000400140A1
:1025E000001800400168CA6822F00102CA60016850
:1025F0000A6A41F211131A4207D10A6A9B101A4261
:1026000003D10A6822F001020A60012180F83D101E
:102610000020704770B5044690F83C000025012862
:1026200017D0012684F83C60022084F83D00206821
:10263000826822F0770222F47F4282600868502884
:1026400038D00DDC20284FD005DC90B3102811D1F4
:102650004AE0022070BD302846D040280AD13BE035
:1026600060282FD070280DD0B0F5805F03D0B0F572
:10267000005F12D0012584F83D60002084F83C0002
:10268000284670BDCB68D1E90121206801F008FE21
:102690002068816841F0770109E0CB68D1E9012128
:1026A000206801F0FDFD2068816841F4804181606F
:1026B000E1E719E0CA684968206801F0C5FE5021C9
:1026C000206806E0CA684968206801F0CEFE6021F3
:1026D000206801F0EFFDCEE7CA684968206801F084
:1026E000B3FE40212068F4E7226801461046F0E777
:1026F000704770B50446006801694FF00005C94392
:10270000890715D4C168C943890711D4E91E01613D
:1027100001202077206880698007204602D0FFF7DB
:10272000E7FF04E000F0D8F8204600F087F92577AD
:1027300020680169C943490717D4C168C9434907DB
:1027400013D46FF0040101610220207720688069B2
:1027500010F4407F204602D0FFF7CAFF04E000F0EB
:10276000BBF8204600F06AF9257720680169C94363
:10277000090716D4C168C943090712D46FF00801CC
:102780000161042020772068C0698007204602D0BC
:10279000FFF7AEFF04E000F09FF8204600F04EF98E
:1027A000257720680169C943C90617D4C168C943A0
:1027B000C90613D46FF0100101610820207720684A
:1027C000C06910F4407F204602D0FFF791FF04E07B
:1027D00000F082F8204600F031F925772068016981
:1027E000C943C90708D1C168C943C90704D1891EB3
:1027F0000161204600F023F920680169C9430906F8
:1028000009D4C168C943090605D46FF0800101618C
:102810002046FFF711FE20680169C943490609D423
:10282000C168C943490605D46FF0400101612046E3
:1028300000F01BF920680169C94389060BD4C168FF
:10284000C943890607D46FF0200101612046BDE825
:102850007040FFF7F2BD70BD10B586B0044614217C
:102860006846FDF798FD2368002117480222B3F15E
:10287000804F17D0154CA34212D1036843F00203D6
:102880000360006800F0020005904FF47070009043
:10289000CDE90121CDE9031269460D48FEF7D2FDCD
:1028A00006B010BD036843F001030360006800F048
:1028B000010005900F200090CDE901210120CDE914
:1028C000031069460348E9E7303802400008004039
:1028D0000004024000000240704770B5044690F8C2
:1028E0003C0000260D4601280FD0012084F83C0052
:1028F0006AB1042A1DD0082A2FD00C2A3FD0012605
:10290000002084F83C00304670BD022070BD206875
:1029100001F0D8FC2068816941F0080181612068DC
:10292000816921F004018161206881692A6911436C
:1029300011E0206801F0F6FC2068816941F4006133
:1029400081612068816921F48061816120688169E9
:102950002A6941EA02218161D2E7206801F018FD6D
:102960002068C16941F00801C1612068C16921F096
:102970000401C1612068C1692A69114311E020681E
:1029800001F03AFD2068C16941F40061C16120682D
:10299000C16921F48061C1612068C1692A6941EA85
:1029A0000221C161ACE710B5040003D094F83D00EA
:1029B00010B107E0012010BD002084F83C00204643
:1029C00000F01EF8022084F83D00211D206801F06F
:1029D00003FC012084F8460084F83E0084F83F00A0
:1029E00084F8400084F8410084F8420084F84300F1
:1029F00084F8440084F8450084F83D00002010BDB0
:102A000008B501680B48B1F1804F0BD00A4A9142DA
:102A100007D1016841F004010160006800F0040082
:102A2000009008BD016841F001010160006800F0FC
:102A30000100F5E740380240000800407047704749
:102A40000246002041B1042909D008290AD00C29E6
:102A500001D11068006C70471068406B70471068B7
:102A6000806B70471068C06B7047704770B504008A
:102A700004D094F83D00002510B106E0012070BD9F
:102A800084F83C50204600F023F8242084F83D00D0
:102A90002068C16821F40051C160204601F0F8FCB3
:102AA0002068016921F4904101612068416921F0A9
:102AB0002A0141612068C16841F40051C160256468
:102AC000202084F83D0084F83E00002070BD000006
:102AD00070B586B0044614216846FDF75CFC2248B8
:102AE000204E256800242049143802220323B542D1
:102AF00018D10D6845F010050D60096801F010014E
:102B00000591016841F0010101600068694600F02B
:102B10000100059058028DE815000720CDE903302B
:102B200012481AE0124EB54219D10D6845F0200541
:102B30000D60096801F020010591016841F0040170
:102B400001600068694600F004000590C0208DE82F
:102B500015000820CDE903300648FEF773FC06B0E7
:102B600070BD0000001001404438024000000240E7
:102B70000014014000080240FEE701684A69D243A0
:102B800052050FD46FF480624A61002140F8301F73
:102B9000202242738173026942F0040202610173D0
:102BA00001207047002070472DE9F84F0446006867
:102BB00089460B9D01689846174641F48061016083
:102BC0002068016841F48071016000954FF0011B9D
:102BD0000022594620460A9B00F0DEF84FF4007AA6
:102BE00040B120680068C00501D5C4F840A00320AA
:102BF000BDE8F88F216809F0FE0008612B462849DE
:102C000020460A9A00F0FCF8F0BB20684169806910
:102C100000902A4620460A9900F070F940B1206CD5
:102C200004283AD12068016841F40071016034E061
:102C3000FEB2B8F1010F09D02168380A08612A46AE
:102C400020460A9900F05AF90028E8D12068066168
:102C50002A4620460A9900F051F90028DFD1206861
:102C6000016841F4807101600095002259462046B8
:102C70000A9B00F091F80028B3D1216809F0FF0009
:102C800040F00100086100E007E02B4604492046BF
:102C90000A9A00F0B5F80028AAD00120A8E70000A1
:102CA000020001002DE9F843044600680D46DDE905
:102CB000089701689846164641F4807101604B46BA
:102CC00000224FF001112046009700F065F848B14E
:102CD00020680068C00502D54FF40070206403200E
:102CE000BDE8F883216805F0FE0008613B464A46CE
:102CF0001549204600F084F888B920684169806948
:102D000000903A464946204600F0F8F848B1206C59
:102D1000042804D12068016841F400710160012099
:102D2000DEE7F5B2B8F1010F09D02168300A086179
:102D30003A464946204600F0E1F80028E7D12068ED
:102D400005610020CCE700000200010070B51646C6
:102D50000D4604460DE02046FFF70FFF08B10120A5
:102D600070BD681C05D0FEF76FFC801BA84207D819
:102D700035B120684069C0434007ECD4002070BDE5
:102D8000002044F8300F20216173A073216941F0C5
:102D9000200121612073E2E72DE9F0471E469046AD
:102DA0000D460446C1F30747DDF8209008E0701C8B
:102DB00006D0FEF749FCA0EB0900B0420FD876B16F
:102DC0002068012F18D0806925EA00000004000C5B
:102DD00014D000214145EAD00020BDE8F087002052
:102DE00044F8300F20216173A073216941F0200164
:102DF000216120730120F0E74069E5E70121E9E75F
:102E00002DE9F0479A4691460E46044600254FF0BC
:102E10002008C1F3074725E020684069C04340050A
:102E200014D42068016841F40071016021686FF4D6
:102E300080604861256384F83D8084F83E50206CB2
:102E400040F00400206484F83C501FE0B9F1FF3FDB
:102E500008D0FEF7F9FBA0EB0A0149450CD8B9F1FF
:102E6000000F09D02068012F13D0806926EA0000E6
:102E70000004000C0BD0CFE744F8305F84F80D80DD
:102E8000A573206940F02000206125730120BDE872
:102E9000F0874069EAE72DE9F041002590460E46AB
:102EA0000446202717E04069C043C0060CD454F8FC
:102EB000301B6FF01000486144F810596777A57710
:102EC000206A2062257717E0FEF7BEFBA0EB080022
:102ED000B04208D83EB120684169C9434906E2D4EE
:102EE0000020BDE8F08144F8305F6773A573206966
:102EF00040F02000206125730120F2E770B51646EE
:102F00000D4604460DE02046FFF737FE08B10120CC
:102F100070BD681C05D0FEF797FB801BA84207D840
:102F200035B120684069C0430006ECD4002070BD74
:102F3000002044F8300F20216173A073216941F013
:102F4000200121612073E2E71F489FED1E0AF7EE82
:102F5000000A80ED040A9FED1D0A9FED1E1A80ED08
:102F6000050A9FED1B0ADFED1C1A80ED030AC0ED78
:102F7000000A80ED020A303080ED041AC0ED051A17
:102F800080ED030AC0ED000A80ED020A183080EDE2
:102F9000041AC0ED051A80ED030AC0ED000A80EDA9
:102FA000020A9FED0E1A303880ED041A9FED0C1ABC
:102FB00080ED051A80ED030AC0ED000A80ED020ADB
:102FC0007047000048E13240E00300206F12833A6E
:102FD00000000000A4703D3E7B14EE3E85EB513EA8
:102FE0000AD7E33ED0ED000AD0ED041A90ED021AA4
:102FF00070EEA10AC0ED010AD0ED051A30EEA12A4B
:10300000C0EE821A30EE412AB0EE410AB7EE001A45
:10301000C0ED031A31EE611A01EE820A61EE200A58
:1030200080ED020AC0ED000A704700000A489FEDDB
:10303000090AF7EE000A80ED040A9FED080A80ED08
:10304000050A9FED070A80ED030AC0ED000A80ED36
:10305000020A70476666663EA80600209A99D93E25
:103060000000000038B5204C80208DF8000020883A
:10307000012380B26A466B2100F0F0FF6420FEF766
:1030800071F900258DF800502088012380B26A462E
:103090006B2100F0E3FF00F0C7FF401C20D00720A9
:1030A0008DF800002088012380B26A46192100F0C3
:1030B000D5FF8DF800502088012380B26A461C217C
:1030C00000F0CCFF8DF800502088012380B26A46C2
:1030D0001B2100F0C3FF6420FEF744F9002038BD37
:1030E0004FF0FF3038BD00006800002088B240BAC1
:1030F00000B200EE100A090C49BAF8EEC01A09B283
:1031000000EE101A91B249BAB8EEC01A09B200EE38
:10311000101A0948F8EEC00A9FED080A61EE801AFD
:1031200021EE001A20EE800AC0ED001A80ED011A8F
:1031300080ED020A70470000800600200000803801
:103140001CB5194806236A460088432180B200F066
:1031500057FF002826D1BDF80000BDF8021040BA84
:1031600000B200EE100A49BA09B2F8EEC01A00EE39
:10317000101ABDF804100D4849BAB8EEC01A09B2C9
:1031800000EE101AF8EEC00A9FED090A81EE802ABF
:10319000C1EE001A80ED032A80EE801AC0ED041AF9
:1031A00080ED051A1CBD000068000020800600208C
:1031B000000003432DE9F04F87B014216846FDF766
:1031C000EAF848480024016841F004010160016800
:1031D00001F004010591016841F08001016001687E
:1031E00001F080010591016841F001010160016871
:1031F00001F001010591016841F0020101600168DF
:1032000001F002010591016841F0080101600068C8
:10321000DFF8D4B000F008004FF40055059000220C
:1032200029465846FEF70BFADFF8C0900022A0218D
:103230004846FEF704FADFF8B8A04FF440470022F2
:1032400039465046FEF7FBF94FF4405800224146FC
:103250002848FEF7F4F911200095CDE901046946EC
:1032600058460394FEF7EEF8A02001250226CDE98A
:103270000005CDE9024669464846FEF7E3F84020DE
:103280008DE8310069464846FEF7DCF80097CDE945
:103290000154694650460394FEF7D4F8CDF80080F7
:1032A0000396CDE9015469461248FEF7CBF8381170
:1032B000CDE90006032502940820CDE903506946B4
:1032C0005846FEF7BFF86020CDE9000602940720BB
:1032D000CDE9035069460748FEF7B4F807B0BDE8EA
:1032E000F08F000030380240000802400000024029
:1032F00000040240000C02400D4810B50B4901606B
:103300000C49416000214FF480428160C0E9031202
:1033100041618161C1610162FEF79CF9002803D01F
:10332000BDE81040FDF7E6B810BD000000580040B1
:1033300040040020A08601000D4810B50B49016033
:103340000C49416000214FF480428160C0E90312C2
:1033500041618161C1610162FEF77CF9002803D0FF
:10336000BDE81040FDF7C6B810BD0000005C00408D
:1033700094040020A086010010B58AB000240794B0
:103380001C2168460894FDF706F821484FF080415B
:10339000C0E90014611EC0E9024104618461FFF7C5
:1033A00002FB08B1FDF7A6F8079407A9184808948E
:1033B000FFF744F808B1FDF79DF86020CDE900045F
:1033C00002940022694612480494FFF786FA08B175
:1033D000FDF790F8042269460D48FFF77EFA08B120
:1033E000FDF788F8082269460948FFF776FA08B120
:1033F000FDF780F80C2269460548FFF76EFA08B120
:10340000FDF778F80248FFF727FA0AB010BD000070
:10341000E804002010B586B00024184800940194F8
:103420000294039404941449059401605321C0E963
:10343000011440F24D11C0E903148461FFF746F80E
:1034400008B1FDF757F84FF48050009069460B48DB
:10345000FFF7E0F808B1FDF74DF8049404A9074818
:103460000594FEF7EBFF08B1FDF744F80348FFF7BA
:1034700079F806B010BD00000004004030050020BF
:1034800010B58AB0002407941C2168460894FCF704
:1034900082FF22482049C0E900144FF6FF71C0E9BD
:1034A000024104618461FFF77EFA08B1FDF722F85A
:1034B000079407A919480894FEF7C0FF08B1FDF763
:1034C00019F86020CDE900040294002269461348EF
:1034D0000494FFF702FA08B1FDF70CF804226946DC
:1034E0000E48FFF7FAF908B1FDF704F8082269461B
:1034F0000A48FFF7F2F908B1FCF7FCFF0C22694615
:103500000648FFF7EAF908B1FCF7F4FF0348FFF7B4
:10351000A3F90AB010BD00000008004078050020A3
:103520000C4810B50A4901604FF4E13141600021B7
:1035300081600C22C160C0E904128161C161FFF7A2
:1035400095FA002803D0BDE81040FCF7D3BF10BDAA
:1035500000100140C00500200C4810B50A49016068
:103560004FF4E1314160002181600C22C160C0E96B
:1035700004128161C161FFF779FA002803D0BDE828
:103580001040FCF7B7BF10BD001401400406002036
:10359000FEE700002DE9F04173484FF4E161734C00
:1035A00046898E427ED102898A4223D17048D0ED6D
:1035B0000A0A9FED700A70EE800AF5EEC00AF1EE7D
:1035C00010FA02D29FED6C0A0FE0D0ED0A0A6B4AA6
:1035D00070EE800A10EE901A914202DD9FED680AAB
:1035E00003E0D0ED0A0A30EE800ABDEEC00A10EE0C
:1035F000100A0AE08088B0F57A7F7CD44FF44871D5
:10360000A0F57A70884200DD0846E080A0805D4B1E
:10361000608020805C4D93ED0A0A5C4FD5ED0A0A6C
:10362000B1EE400A00B230EE600AD7ED0A0A70EE41
:10363000200A00EE100AB4F90200B8EEC00A30EE1B
:10364000800AD5ED0A0ABDEEC00A10EE102A93EDED
:103650000A0A30EE600AD7ED0A0A70EE600A00EE40
:10366000100AB4F90400B8EEC00A30EE800AD3EDB7
:103670000A0ABDEEC00A10EE101A95ED0A0A30EEE5
:10368000600AD7ED0A0A70EE600A00EE100AB8EE82
:10369000C00A30EE800ABDEEC00A10EE100A93EDAB
:1036A0000A0A00E027E0D5ED0A0AB4F9063002F56F
:1036B0007A7230EE200AD7ED0A0A228001F57A717B
:1036C00070EE200A00EE103A618000F57A70B8EED4
:1036D000C00AA0802E484FF47A7530EE800ABDEE05
:1036E000C00A10EE103A03F57A73E380007820B137
:1036F000C82E02D009E0002087E7E580A58065801C
:1037000025800C21234802F0EDF8B4F900204FF495
:10371000FA60AA4201DA2A4602E0824200DD02464D
:103720004FF080414A63B4F90220AA4201DA2A46E6
:1037300002E0824200DD02468A63B4F90420AA4214
:1037400001DA2A4602E0824200DD0246CA63B4F989
:103750000620AA4201DA284602E0824200DC104636
:103760000864BDE8F0810000600100200A0000202C
:10377000740200200000E1430000000000802244A9
:1037800000802244A8020020DC0200201003002058
:1037900014000020180100202DE9FE43FFF7A6FCCD
:1037A000FFF7CEFCDFF89C80274D00246F4600BF5A
:1037B00037F8140041BA38F81400091A686820F87C
:1037C0001410032C17D230F9140004EB440100EE5E
:1037D000100A1D48083000EBC106B8EEC00A30469A
:1037E00001F0D5FF96ED020A6968BDEEC00A10EE41
:1037F000100A21F81400022C1ED9E01E1149C0B293
:103800000C3101EB80009FED121AD0ED000A6968BF
:103810009FED0E0A60EE810A31F9142001EE102AA4
:10382000B8EEC11A41EE000AC0ED000ABDEEE00A92
:1038300010EE100A21F81400641CE4B2062CB7D371
:10384000BDE8FE8368060020680000209A99193EB2
:103850009A99593F2DE9F0438BB0182104A8FCF741
:103860009AFD0021DFF8EC9002910391C9F8001055
:10387000C9F80410C9F808104FF400511E246FF065
:103880000408A9F804103448FEF7ACFE334D2AE0D2
:1038900002AE6F460A2001F05DFFFFF77DFFD5F80D
:1038A0000420002002EB4001CB8836F810C0A3EBC7
:1038B0000C0327F81030C98826F81010401C00B2FD
:1038C0000328EFDBBDF90000401D0B28E2D2BDF953
:1038D00002000528DEDC4045DCDBBDF904000528DC
:1038E000D8DC4045D6DB641EE4B2D1D20024FFF719
:1038F00053FF4FF4B27704AE11E000BFFFF74CFF67
:10390000642C0CDB6968002056F8202031F9103057
:103910001A4446F82020401CC0B20628F4D3641C88
:1039200024B2BC42EADB00204FEA090156F820200D
:10393000121221F81020401C00B20628F6DB0648BF
:10394000FEF710FE06210348FCF788FE0BB0BDE829
:10395000F083000068060020300500206800002089
:10396000FEE710B5002000F0EDF8012000F002F9AC
:10397000002000F0F7F8BDE81040002000F0EAB8A1
:1039800010B5FFF7EEFF0821002000F0FBF83F2103
:10399000012000F0F7F80121022000F0F3F80321E4
:1039A000084600F0EFF80321042000F0EBF8402176
:1039B000052000F0E7F80E21062000F0E3F80421CE
:1039C000112000F0DFF8052207490A2000F0ECF88A
:1039D00000F0ABF800F01EF87021072000F0D2F8DC
:1039E000BDE8104000F002B8C000002010B5002073
:1039F00000F0A8F8002000F037F8FF2809D040F0C8
:103A00000301002000F0BEF8BDE81040012000F0E6
:103A100099B810BD10B5002000F0ACF8E22000F01D
:103A200067F8BDE81040012000F0A4B8402101482B
:103A3000FDF700BE0000024070B506460D460020AE
:103A400000F098F8612000F053F8002405E0FF2012
:103A500000F04EF83055641CE4B2AC42F7D3BDE838
:103A60007040012000F086B810B50446002000F038
:103A700081F8204600F03CF8FF2000F039F80446B9
:103A8000012000F077F8204610BD10B5002000F0AE
:103A900071F8FF2000F02CF80446012000F06AF8CD
:103AA000204610BD10B5FFF7F0FF04460020FFF7D9
:103AB000DBFF800701D4032412E0C4F301100328C4
:103AC0000DD060060FD5012404210848FFF7B4FF8C
:103AD0004021072000F056F8FFF79CFF04E0022485
:103AE000FFF74EFF00E00024204610BDB800002084
:103AF00070B504460025200601D5012000E0002015
:103B000000F028F86006040E012000F02BF8FFF703
:103B10008DFF08B144F00104002000F023F86D1C73
:103B2000EDB2082DE7D3204670BD10B5002000F09F
:103B300021F8E120FFF7DCFFBDE81040012000F094
:103B400019B8000002464FF480510148FDF777BDD7
:103B5000000C0240024680210148FDF770BD0000C4
:103B600000000240024620210148FDF768BD000028
:103B70000000024002464FF400510148FDF75FBDCE
:103B8000000C024070B504460D460020FFF7F2FF1E
:103B900044F02000FFF7ACFF2846FFF7A9FFBDE87F
:103BA00070400120FFF7E6BF70B5044615460E468B
:103BB0000020FFF7DFFF44F02000FFF799FF00240B
:103BC00004E0305DFFF794FF641CE4B2AC42F8D32C
:103BD000BDE870400120FFF7CDBF70B5002404F1AF
:103BE000B000C0B200F0BEF8002000F0BBF810201A
:103BF00000F0B8F80025002000F0C6F86D1CEDB20A
:103C0000802DF8D3641CE4B2082CE8D370BD00000A
:103C100070B5C820FDF7A6FB044D0024285D00F018
:103C2000A1F8641CE4B2172CF8D370BD4800002042
:103C300010B50446B031C8B200F094F8102040EA44
:103C4000141000F08FF804F00F00BDE8104000F0F1
:103C500089B800002DE9F047203A0024089E0F465D
:103C60008146D5B27F2803D900208F1C8146FFB240
:103C7000102B394612D0FFF7DBFF1B4905EB45003F
:103C800001EB4005285D0EB1C043C0B200F07CF8E6
:103C9000641CE4B2062CF5D3BDE8F087FFF7C8FF3B
:103CA000DFF8488004EB051118F801000EB1C0439D
:103CB000C0B200F069F8641CE4B2082CF2D37F1C97
:103CC000F9B24846FFF7B4FF0024474604EB05105D
:103CD0003844007A0EB1C043C0B200F055F8641CFD
:103CE000E4B2082CF2D3D7E7366700085E69000813
:103CF0002DE9FF4F81B00026DDE90EA91D46934650
:103D0000804634464FEA5A0727E0281B401EC1B2BE
:103D10000A2001F0DFFDBBFBF0F00A21B0FBF1F25D
:103D200001FB120026B9691E8C4201DA48B1012656
:103D30003030C2B207FB0480C0B25346CDF80090C9
:103D400006E007FB0480C0B253462022CDF8009065
:103D50000299FFF77FFF641CE4B2AC42D5D305B0F3
:103D6000BDE8F08F01B584B001214FF4807204A842
:103D70008DE807000B46002278210248FDF7E0FE9F
:103D800005B000BD4004002001B584B001214FF40E
:103D9000807204A88DE807000B4640227821024873
:103DA000FDF7CEFE05B000BD4004002070470000C6
:103DB00030B51A4802681A494B68D21A0B461C885B
:103DC000A2420ED30068486016489D780830154C12
:103DD000011F021DD5B1012D04D0022D05D00120F7
:103DE000987030BD4FF47A7312E0236883F4077340
:103DF0002360036883F407730360086880F4077026
:103E00000860106880F40770106030BD4FF4FA73DA
:103E1000236003600B60136030BD000004000020CD
:103E2000600000203404004010EE100AF6EE000A94
:103E3000074960EE200AA1EB600000EE100AB7EE21
:103E4000081A60EE800A00EEC01A21EE000A7047E0
:103E5000DF59375F2DE9F041584F2DED068B97ED77
:103E6000000A9FED57AA30EE4A0A10EE100A02F03F
:103E7000DBFB9FED548B53EC182B01F035FF9FEDCE
:103E8000539B53EC192B01F087FE02F0B5F8514D0E
:103E900080B24FF47A7674002880B04201D2304666
:103EA00002E0A04200D92046288097ED010ADFED0C
:103EB0004A0A30EE600A10EE100A02F0B5FB53EC2D
:103EC000182B01F011FF53EC192B01F065FE9FED4B
:103ED000431B53EC112B02F0E5F902F08DF880B290
:103EE0006880B04201D2304602E0A04200D92046AC
:103EF000688097ED020ADFED3B0A30EE600A10EEB3
:103F0000100A02F091FB53EC182B01F0EDFE53EC7C
:103F1000192B01F041FE02F06FF880B2A880B04288
:103F200001D2304602E0A04200D92046A88097ED99
:103F3000030A30EE4A0A10EE100A02F075FB53EC49
:103F4000182B01F0D1FE9FED281B53EC112B02F032
:103F5000A9F902F051F880B2E880B04201D23046AF
:103F600002E0A04200D92046E88097ED050A002231
:103F70001F49BCEEC00A10EE100A288197ED040A12
:103F8000BCEEC00A10EE100A83B21A486B81B3F57A
:103F9000E16F08D00A7002218170BDEC068BBDE88C
:103FA000F041FFF705BF01240C708270FFF700FF9E
:103FB00011480470BDEC068BBDE8F081C0060020FE
:103FC000000058439A9999999999F93F0000000087
:103FD00000408F406001002000003B4300000000D3
:103FE0000070A740000038430000000000409F40E0
:103FF000080000206000002014000020704700002E
:104000003EB54FF47A748DE81C004FF6FF7202EA59
:1040100040000A46014601230248FDF795FC40B2E4
:104020003EBD00004004002070B501244FF47A75B5
:104030002B46012221460748FDF7D0FB30B1641C16
:10404000E4B2FF2CF4D34FF0FF3070BD024960089A
:10405000088070BD40040020680000203EB54FF489
:104060007A748DE81C00012202EB4000134680B2F6
:104070000A4601460248FDF763FD40B23EBD00001E
:1040800040040020FDF768BE30B593B0302168468B
:10409000FCF781F914210CA8FCF77DF91E480025D6
:1040A000016841F080510160006800F0805011907B
:1040B0001A48016841F4804101600068022400F45C
:1040C0008040119001200090000401908001CDE912
:1040D0000640192008904FF4A870CDE90904072084
:1040E0000B906846FDF7DEFF08B172B6FEE70CA93B
:1040F0000F2081E831004FF4A0500F904FF4805012
:10410000109005210CA8FDF7C1FE002801D072B661
:10411000FEE713B030BD00004038024000700040A0
:104120000248016841F470010160704788ED00E0C9
:1041300070B523482DED028BFEF7DBFA214C0325E9
:10414000207878B9607808B900F028FAFFF724FBE6
:10415000FFF780FE6078401CC0B2B0FBF5F105FBB4
:104160001100607020789FED188A012807D1B0EE09
:10417000480A16491648FCF7E9FCFCF7FFFF2078CF
:10418000022812D113480089C82803D0B0F5E16F86
:1041900005D008E0B0EE480AFCF7DAFB03E0B0EE29
:1041A000480AFCF785FAFFF7F5F92078401CC0B201
:1041B000B0FBF5F105FB11002070BDEC028B70BD6A
:1041C0003005002036000020A69B443B540100200F
:1041D0004801002060010020F0B50268254C264D02
:1041E000264E274F274B4FF0804CA04209D0604508
:1041F00007D0A84205D0B04203D0B84201D09842BF
:1042000004D122F0700E4A6842EA0E02A0421BD08E
:10421000604519D0A84217D0B04215D0B84213D08B
:10422000984211D0184DA8420ED0184DA8420BD07C
:10423000174DA84208D0174DA84205D0164DA842E8
:1042400002D0164DA84203D122F44075CA682A4311
:104250004D6922F080022A4302608A68C2620A68BD
:104260008262A04201D0984201D109690163012113
:104270004161F0BD00000140000400400008004022
:10428000000C004000040140004001400044014097
:104290000048014000180040001C00400020004081
:1042A00010B5846842EA032224F47F440A4322437F
:1042B000826010BD826822F070020A4342F007015A
:1042C00081607047F0B5026A22F001020262036A5F
:1042D00042688469124E24F073050C682C4323F065
:1042E00002058B682B430D4DA84201D0B04205D189
:1042F00023F00807CB683B4323F00403A84201D016
:10430000B04205D14D6922F4407215438A692A43AF
:1043100042608461496841630362F0BD000001406E
:1043200000040140F0B5026A22F010020262026A43
:10433000436884690D6824F4E64444EA05248D68E2
:1043400022F0200242EA05120F4D104EA84201D081
:10435000B04206D1CF6822F0800242EA071222F072
:104360004002A84201D0B04207D14D6923F4406316
:1043700043EA85038D6943EA8503436084614968A4
:1043800081630262F0BD00000000014000040140B2
:10439000F0B5026A22F480720262026A4368C4695C
:1043A00022F4007224F073050C68124E2C438D68C1
:1043B00042EA05220E4DA84201D0B04206D1CF6894
:1043C00022F4006242EA072222F48062A84201D06D
:1043D000B04207D14D6923F4405343EA05138D6978
:1043E00043EA05134360C4614968C1630262F0BDDA
:1043F000000001400004014030B5026A22F48052FE
:104400000262046A4268C3690D6823F4E64343EA22
:1044100005238D6824F4005444EA0534084DA8426D
:1044200002D0084DA84204D14D6922F4804242EAEC
:1044300085124260C36149680164046230BD0000B6
:10444000000001400004014010B5036A046A24F032
:1044500001040462846924F0F00444EA021423F0A5
:104460000A020A438461026210BD10B5036A23F098
:10447000100303628369046A23F4704343EA02323F
:1044800024F0A00343EA01118261016210BD000023
:1044900070B5044600680169E26821F44051114397
:1044A00001612169A068E269084361691143084319
:1044B0002168CA6849F20C639A430243CA602068C3
:1044C0004169A26921F44071114341613149206879
:1044D000884202D03049884202D1FDF7A1FD01E0B7
:1044E000FDF78EFDE2690023192164253226B2F51D
:1044F000004F626828D0A0FB0101930F9200FBF7E8
:10450000D3FE0146B0FBF5F06FF01802504301EB0B
:10451000800006EB0010B0FBF5F000F0F002B1FBFC
:10452000F5F002EB0012B1FBF5F06FF01803584301
:1045300001EB800006EB0010B0FBF5F000F00F007F
:1045400021681044886070BDA0FB010192185B4196
:10455000FBF7AAFE0146B0FBF5F00201B1FBF5F056
:104560006FF01803584301EB800006EBC000B0FB6E
:10457000F5F000F0F80002EB4002B1FBF5F0584313
:1045800001EB800006EBC000B0FBF5F000F0070087
:10459000D6E700000010014000140140704770474A
:1045A000FEE703B401984100009850EAC12018BF0B
:1045B00004204A0D18BF40F0010040F2FF72B2EB38
:1045C000515F08BF40F00200012808BF052002B07B
:1045D00070470907090E002804DB00F1E02080F88D
:1045E0000014704700F00F0000F1E02080F8141D67
:1045F000704700000000000070B5C1482DED020BAF
:104600002DED0E8B82B0119D25F000449FEDBEDB99
:104610009FEDBFEB84423EDBA4F140511098A1F125
:104620007F6108430FD0BC48844202DC28D1109837
:1046300030B39DED100B02B0BDEC0E8B02B0BDE8A7
:10464000704001F039B89DED100B53EC1D2B51EC6F
:10465000100B01F029FD9DED100B41EC180B53ECF4
:104660001E2B51EC100B01F01FFD53EC182B01F029
:1046700093FA41EC100B02B0BDEC0E8B02B070BD92
:104680000120FBF7B7FE02B0BDEC0E8B02B0BDE817
:10469000704001F025B8A1489FEDA18B844256DA05
:1046A0009DED100BB4F1795F0ADA51EC100BFFF7B6
:1046B00078FF042808BF01F023F89DED100BDAE71E
:1046C00053EC102B51EC100B01F0EEFC41EC190BEC
:1046D00095480621B0EE490AF0EE690A784400F0E8
:1046E000D7FE53EC192B51EC100B01F0DDFC41EC23
:1046F0001A0B8E48B0EE490AF0EE690A042178449C
:1047000000F0C6FE53EC192B51EC100B01F0CCFC61
:1047100053EC182B01F040FA41EC100B51EC1A0B42
:1047200053EC102B01F0E0FACDE900019DED000BF8
:1047300053EC102B9DED100B51EC100B01F0B4FC61
:104740009DED101B53EC112B01F026FAD2E09DEDEC
:10475000100B51EC100B01F00EF853EC182B01F07C
:10476000A1FD9FED730BCDE9000153EC102B9DEDE6
:10477000000B51EC100B01F097FC41EC190B6E484B
:104780000621B0EE490AF0EE690A784400F080FE96
:1047900053EC192B51EC100B01F086FC41EC1B0B78
:1047A0006648B0EE490AF0EE690A0421784400F048
:1047B0006FFE53EC192B51EC100B01F075FC53EC10
:1047C000182B01F0E9F941EC1C0B51EC190B01F02D
:1047D0006DF941EC180B5A489FED5BABA04222DC0F
:1047E00053EC1C2B51EC1B0B01F07EFACDE90001C0
:1047F0009DED000B51EC180B53EC102B01F054FC09
:1048000053EC182B01F0C8F953EC1A2B01F04CFCB7
:1048100053EC1D2B01F01EFE53EC1E2B01F042FD4C
:1048200041EC100B5FE08DED008B002000909DEDC2
:10483000000B51EC180B53EC102B01F0ADF99DED72
:10484000000B41EC1E0B53EC102B51EC100B01F044
:104850002BFC53EC192B01F025FD53EC1E2B01F022
:1048600043FA41EC190B53EC1C2B51EC1B0B01F0E0
:104870003BFA41EC1B0B53EC1A2B51EC190B01F0DA
:1048800013FC53EC1D2B01F00DFD41EC190B53EC07
:104890001A2B51EC180B01F007FC53EC1B2B01F009
:1048A00003FC53EC192B01F0D5FD9DED000B41EC01
:1048B000180B53EC1A2B51EC100B01F0F5FB9FED8C
:1048C000249B53EC192B01F0EDFC41EC100B51EC47
:1048D000180B53EC102B01F0BDFD53EC192B01F01C
:1048E000E1FC41EC100B002D3FF7C5AE51EC100B75
:1048F00001F013F941EC100BBDE6000000000000D0
:104900000000F03F00000000075C143326A6913C35
:10491000182D4454FB21F93F0000F07F0000E03FD8
:10492000000000000000F03F702800007E2800001A
:10493000000000000000E03FC2270000D027000078
:104940003333EF3F00000000000000000000004093
:10495000182D4454FB21E93F70B59B482DED020B07
:104960002DED068B079D25F00044A04218DC9748EA
:10497000844202DC0AD1069840B19DED060BBDECE5
:10498000068B02B0BDE8704000F096BE002DCCBF93
:104990009FED8F0B9FED900BBDEC068B02B070BDB1
:1049A0008F48A04215DD8F48A042D8BF4FF0FF349A
:1049B00058DD9DED060B51EC100BFFF7F2FD0428BE
:1049C00008BF00F09DFE9DED060BBDEC068B02B00E
:1049D00070BD9DED060B51EC100B00F0CCFECDE947
:1049E000060181489FED828BA0423CDD8248A042B7
:1049F0001FDD00249FED82AB9DED060B53EC1A2BBF
:104A000051EC100B01F0C8F89DED060B41EC190BB1
:104A100053EC1A2B51EC100B01F046FB53EC182B06
:104A200001F018FD53EC192B01F05EF9CDE90601F8
:104A300049E09DED060B012453EC182B51EC100BB3
:104A400001F0AAF89DED060B41EC190B53EC182B65
:104A500051EC100B01F0FEFC53EC192B01F044F962
:104A6000CDE906012FE06848A0421FDD02249FED3A
:104A7000689B9DED060B53EC192B51EC100B01F0CC
:104A800013FB53EC182B01F087F89DED060B41EC5E
:104A9000180B53EC192B51EC100B01F0DBFC53EC11
:104AA000182B01F021F9CDE906010CE09DED060B74
:104AB000032453EC102B9FED580B51EC100B01F01D
:104AC00013F9CDE906019DED060B53EC102B51ECCB
:104AD000100B01F0E9FA41EC180B53EC182B01F024
:104AE000E3FA41EC190B4E480621B0EE490AF0EE0C
:104AF000690A784400F0CCFC53EC182B51EC100BF5
:104B000001F0D2FA41EC180B4648B0EE490AF0EE3B
:104B1000690A0521784400F0BBFC53EC192B51ECD9
:104B2000100B01F0C1FA41EC100B51EC180B53ECD7
:104B3000102B002C0EDA01F02FF89DED061B53EC24
:104B4000112B01F0B1FA9DED061B53EC112B01F076
:104B5000A9FB35E001F020F89DED061B53EC112B6D
:104B600001F0A2FA41EC100B2F48784400EBC4008E
:104B700090ED001B51EC100B53EC112B01F06AFC73
:104B80009DED061B53EC112B01F064FC41EC100B66
:104B90002648784400EBC40090ED001B51EC100B4C
:104BA00053EC112B01F07EFB41EC100B002DA2BF4A
:104BB000BDEC068B02B070BD51EC100B00F0ADFFE8
:104BC00041EC100B01E70000000010440000F07FF2
:104BD000182D4454FB21F93F182D4454FB21F9BFF3
:104BE0000000DC3F0000203E0000F33F000000001A
:104BF000000000000000F03F0000E63F0000000061
:104C000000000000000000400080034000000000A1
:104C1000000000000000F83F000000000000F0BFAE
:104C200012250000C8240000522400000A240000BD
:104C300070B56B4E2DED040B2DED028B82B0DDF8BF
:104C40001CC0DDE905235C422CF000411C4341EA15
:104C5000D474049D22F00040B44205D86C422C4329
:104C600040EAD474B4420BD99DED061B9DED040BB4
:104C700002B0BDEC028B04B0BDE8704000F026BD70
:104C8000ACF14054A4F17F641C430BD0022404EA2D
:104C9000AC7444EAD27405439FED538B9FED542BC3
:104CA00007D015E09DED040B51EC100B00F038FD22
:104CB00042E0002C11BF012C9DED040B02B0BDECB5
:104CC000028B04BF04B070BD022C38D0032C3BD043
:104CD0000B439FED491B9FED4A0B0AD0B14218D1FF
:104CE000B04209D121F0804120F080400791059029
:104CF0000FE0002A15DA10E0434B7B44002C08BF7C
:104D000093ED000B0DD0012C10D0022C17D0032CEA
:104D10001AD0B0421DD1002A03DAB0EE410AF0EEFB
:104D2000610A02B0BDEC028B04B070BD93ED000BC4
:104D300051EC100B00F0F1FE41EC100BF1E7B0EE7E
:104D4000480AF0EE680AECE7B0EE420AF0EE620ABA
:104D5000E7E7401A00153C28C8BF8DED000B19DCB1
:104D6000BCF1000FBEBF10F13C0F9FED290B8DED84
:104D7000000B0FDB9DED060B53EC102B9DED040B90
:104D800051EC100B00F0B0FF00F0F5FC00F0C8FC97
:104D9000CDE90001002C08BF9DED000BC1D0012C16
:104DA00010D0022C9FED1C0B53EC102B9DED000B33
:104DB00051EC100B0DD001F04DFB53EC182B01F012
:104DC00049FBB9E7019880F0004001909DED000B90
:104DD000A7E701F03FFB53EC182B01F063FAABE7B8
:104DE0000000F07F00000000182D4454FB21094012
:104DF000182D4454FB2109C0182D4454FB21F9BF40
:104E0000182D4454FB21F93F6A23000000000000E4
:104E10000000000000000000075C143326A6A13C3F
:104E200010B52F499FED2C1B2DED020B84B005987A
:104E300020F000408842D8BF9DED040B2DDD2949AC
:104E4000884209D1049840B94FF00100FBF7D2FA2B
:104E500000F046FC06B010BD05DB9DED040B00F034
:104E60002BFC06B010BD68469DED040B00F03CF82D
:104E700010F0030004BF9DED021B9DED000B0CD054
:104E800001280ED09DED021B9DED000B022817D0CE
:104E9000012000F079FB06B010BD00F041FA06B029
:104EA00010BD9DED021B9DED000B012000F06CFB81
:104EB00051EC100B00F031FE06B041EC100B10BDB0
:104EC00000F02EFA51EC100B00F027FE06B041EC7A
:104ED000100B10BD000000000000000000000000EA
:104EE000FB21E93F0000F07F2DE9F14F04462DED55
:104EF000020B2DED088B8AB09FEDE70B80ED020BC6
:104F0000139EE74826F0004585420ADC9DED120B12
:104F1000002084ED000B0AB0BDEC088B03B0BDE8A7
:104F2000F08FE0489FEDE0AB9FEDE1BBA84247DD8D
:104F3000E14F9FEDE39B9FEDE48B9DED120B53EC56
:104F40001A2B51EC100B002E1CDD01F083FA41EC02
:104F5000100BBD4208D053EC1B2B51EC100B01F091
:104F600079FAC4E900010BE053EC192B51EC100B5A
:104F700001F070FA53EC182B01F06CFAC4E900014F
:104F80000120C8E700F008FE41EC100BBD4208D03C
:104F900053EC1B2B51EC100B00F0FEFDC4E900019B
:104FA0000BE053EC192B51EC100B00F0F5FD53EC1A
:104FB000182B00F0F1FDC4E900014FF0FF30AAE723
:104FC000C348A84279DB9DED120B51EC100B00F0A9
:104FD000D2FB41EC180B9FEDC00B53EC102B01F0F2
:104FE00063F89FEDBF1B53EC112B00F0D5FD00F0D3
:104FF000D3FF074601F02DF841EC190B53EC1A2BA7
:1050000001F052F853EC182B01F04CF941EC180B5D
:1050100053EC1B2B51EC190B01F046F8DFF8C8A23A
:1050200041EC100B4FEA15580125FA4453EC102BB4
:1050300051EC180B01F00EFA032DC4E900013DD02C
:10504000C1F30A5005EB4511A8EB0000113981426C
:1050500034DA0AEB051BB0EE48AA9BED000BF0EE2C
:1050600068AA53EC102B51EC190B01F01DF841EC20
:105070001B0B51EC1A0B53EC1B2B01F0EBF941EC21
:10508000180B51EC1A0B53EC182B01F0E3F953EC0D
:105090001B2B01F0DFF99BED020B41EC1A0B53ECDB
:1050A000102B51EC190B00F0FFFF53EC1A2B01F001
:1050B000D1F941EC100B6D1CB8E70EE0002EA8BF33
:1050C0003846BFF628AF94ED000B51EC100B00F002
:1050D00024FDC4E9000178421DE7C6F3130040F443
:1050E000801EC6F30A50A0F2F530471100F01F05EC
:1050F000C5F12000DDF848B0089000200690079028
:105100000520EC467949002D07EB0002794408BFE1
:1051100051F8221009D051F8223001EB8201AB4046
:105120004A68089922FA01F11943A1FB0E26A1FB56
:105130000B131A449A4234BF0123002303EB0608E1
:105140000CEB8003D3E901A60E448E4234BF01214B
:10515000002192448A4411B1924502D903E092455C
:1051600001D2012100E00021C3E901A641444CF82D
:105170002010011EA0F10100C4DC029800F10050D3
:10518000850F0298DDE903678000DDF8148000F0E8
:1051900060FF41EC1A0B304600F072FF9FED541B8C
:1051A00053EC112B00F080FF41EC1B0B384600F054
:1051B00067FF9FED511B53EC112B00F075FF41EC85
:1051C000180B404600F05CFF9FED4D1B53EC112B7C
:1051D00000F06AFF41EC190B51EC180B53EC192B42
:1051E00000F0DAFC53EC1B2B00F0D6FC53EC1A2B2E
:1051F00000F0D2FCCDE90801002008909DED080BDD
:1052000053EC1A2B51EC100B01F024F953EC1B2B2F
:1052100001F020F953EC182B01F01CF953EC192B79
:1052200001F040F89FED381B53EC112B00F03CFFD0
:105230009FED370B41EC180B53EC102B9DED080B39
:1052400051EC100B00F030FF53EC182B00F0A4FCD5
:105250009FED310B41EC180B53EC102B9DED080B1F
:1052600051EC100B00F020FF53EC182B00F094FCD5
:1052700041EC100B139810F0004F06D06D4251EC2A
:10528000100B00F04AFC41EC100B284684ED000B9B
:1052900041E60000000000000000000000000000E7
:1052A000FB21E93F7CD9024000004054FB21F93F3B
:1052B0003163621A61B4D03DFB21F93F0000000068
:1052C0000000601A61B4D03D7370032E8A19A33BAD
:1052D000FB2139410000000083C8C96D305FE43F05
:1052E000000000000000E03F42200000901F00008E
:1052F000000000000000103E000000000000103C14
:10530000000000000000103A182D4454FB21F93D24
:105310003326A611460B113C00000054FB21F93D39
:1053200010B52DED040B2DED088B82B0B0EE419A37
:10533000F0EE619A0B9820F000449FED4BABB4F176
:10534000795F11DA9DED0A0B51EC100B00F024FE91
:10535000002801BFB0EE4A0AF0EE6A0A02B0BDECC6
:10536000088B04BF04B010BD9DED0A0B53EC102B4D
:1053700051EC100B00F098FE41EC180B3C48062154
:10538000B0EE480AF0EE680A784400F081F853EC79
:10539000182B51EC100B00F087FE9DED0A0B41EC31
:1053A0001B0B53EC192B51EC100B00F07DFE41EC64
:1053B000190B53EC1B2B51EC180B00F075FE53EC42
:1053C000192B01F047F89FED2C0B41EC190B53EC16
:1053D000102B51EC180B00F067FE41EC100B284825
:1053E000844210DA53EC192B51EC100B01F032F817
:1053F00053EC1A2B00F056FF41EC100B02B0BDEC41
:10540000088B04B010BD1F48A042BCBF9FED1E1BFF
:105410008DED001B06DBA4F500100190002000902C
:105420009DED001B51EC100B53EC112B01F012F809
:105430009DED000B41EC180B53EC102B51EC1A0BAB
:1054400001F008F841EC1A0B53EC192B51EC180B36
:1054500001F000F853EC1A2B00F024FF41EC100B84
:10546000CCE7000000000000000000000000F03F5A
:10547000AC1C000000000000000000000000E03F45
:105480003333D33F0000E93F000000000000D23F6B
:1054900070B504462DED028B4D1E00EBC500B0EE3D
:1054A000408AF0EE608A90ED000B35F0060017D0D0
:1054B00053EC182B51EC100B00F0F6FD41EC100BE7
:1054C0006D1E04EBC50090ED001B51EC100B53EC6E
:1054D000112B00F061FB41EC100B35F00600E7D119
:1054E000022D36D0042D1CD0062D1CBFBDEC028B26
:1054F00070BD53EC182B51EC100B00F0D5FD94ED62
:105500000A1B53EC112B00F047FB53EC182B00F057
:10551000CBFD94ED081B53EC112B00F03DFB41EC4F
:10552000100B53EC182B51EC100B00F0BDFD94ED5B
:10553000061B53EC112B00F02FFB53EC182B00F043
:10554000B3FD94ED040B53EC102B00F025FB41EC64
:10555000100B53EC182B51EC100B00F0A5FD94ED43
:10556000021B53EC112B00F017FB53EC182B00F02F
:105570009BFD94ED001B53EC112B00F00DFBBDECDB
:10558000028B41EC100B70BD31B504462DED040BC0
:105590002DED0A8BB0EE41BAF0EE61BA0B989DED9D
:1055A0000A0B20F00040B0F1795F0DDA51EC100BDE
:1055B000FEF7F7FF042808BF00F0A2F89DED0A0BE4
:1055C000BDEC0A8B05B030BD53EC102B51EC100B29
:1055D00000F06AFD41EC180B9DED0A0B53EC182B03
:1055E00051EC100B00F060FD41EC190B2C48B0EEB3
:1055F000480AF0EE680A05217844FFF749FF9FED5D
:105600002ACBB0EE40AAF0EE60AA9CB353EC1C2B60
:1056100051EC190B00F048FD41EC1C0B53EC1A2B1C
:1056200051EC190B00F040FD9FED210B41EC190BE3
:1056300053EC102B51EC1B0B00F036FD53EC192BE7
:1056400000F008FF53EC182B00F02EFD53EC1B2B41
:1056500000F000FF53EC1C2B00F0FCFE9DED0A1B3C
:1056600053EC112B00F01EFEBDEC0A8B05B041EC93
:10567000100B30BDFFE753EC1A2B51EC180B00F068
:1056800013FD53EC1C2B00F087FA53EC192B00F0A0
:105690000BFD9DED0A1B53EC112B00F07DFAE3E7A7
:1056A0003C1B000000000000495555555555C5BF2D
:1056B000000000000000E03F10B553EC102B51EC4F
:1056C000100B00F069FA41EC100B10BD10B553EC53
:1056D000112B51EC100B00F05FFA41EC100B10BDD8
:1056E0009FED050B10B553EC102B51EC100B00F097
:1056F000FBFA41EC100B10BD0000000000000000A0
:105700009FED050B10B553EC102B51EC100B00F076
:10571000CBFC41EC100B10BD00000000000000109D
:1057200010B541EC100BFFF717F951EC100B10BD41
:1057300000B587B005A96846FCF742FC034901980B
:10574000B0FBF1F00249086007B000BD40420F0015
:105750000000002030B50546FBF7F0FC044605EBE1
:105760004500C0EBC51500BFFBF7E8FC001BB0EB24
:10577000C50FF9D330BD82B0CDE9000121F0004062
:1057800001909DED000B02B051EC100B7047D0ED75
:10579000000A90ED041A70EE810AC0ED010A90ED46
:1057A000051A30EE811AC0EE811AC0ED031A90ED91
:1057B000021A30EE410A01EE801AB7EE000A30EE0E
:1057C000610A80ED021A20EE200A80ED000A70477F
:1057D0001CB5FCF7C9FAFEF757FCFDF7EBFCFDF72B
:1057E000CBFDFDF74DFEFDF79BFEFDF7B5FEFDF78A
:1057F00083FDFDF70FFEFDF79FFDFFF799FF0520E5
:10580000FCF732FB2F484FF47A7100240068B0FB9C
:10581000F1F0401EB0F1807F09D24FF0E0214861E5
:10582000294AF02082F8140D8C6107200861FEF7E8
:10583000A7F8FAF723FEFEF7EBF9FEF7CEF9234EB1
:105840000C25234FFEF72EF90246012835D070783B
:10585000401C7070CDE90054022303210120FEF7A3
:1058600047FA0020FEF700F9CDE900540246022372
:1058700003210520FEF73CFACDE900543A780423D1
:1058800005210120FEF734FACDE900547A7804238B
:1058900005210620FEF72CFACDE90054BA7804233E
:1058A00006210120FEF724FACDE900540621FA78FA
:1058B00004230846FEF71CFAC4E73078401C307019
:1058C000C8E70000440000200FE000E034000020A2
:1058D000B80000200246012000E05043491EC9B232
:1058E000FBD2704700229FED0C0A11E050F82230E5
:1058F00083ED030A50F8223083ED020A50F822307B
:1059000083ED0A0A50F82230521CD2B283ED010A0C
:105910008A42EBD37047000000000000D0ED000A7F
:1059200090ED091A70EEC10A90ED031A00EE801A8C
:1059300080ED031A90ED021A70EEC11A81EE801A02
:1059400090ED050AD0ED031A20EE210AD0ED041ADD
:1059500001EEA00AD0ED061A01EE810A80ED0A0AD6
:10596000C0ED020A7047000040489FED3F0A00F179
:10597000680180ED0B0A9FED3E0A80ED0C0A9FED59
:105980003D0A81ED040A9FED3C0A81ED060A9FED78
:10599000390A343181ED040A9FED370A81ED060A98
:1059A0009FED340A343181ED040A9FED330A81ED15
:1059B000060A3431B1EE0B0A81ED040A9FED2F0A7D
:1059C00081ED050ADFED2E0AB1EE0B1AC1ED060AD4
:1059D000343181ED041A81ED050AC1ED060A343136
:1059E000B1EE0B1A81ED041A81ED050A9FED250A2F
:1059F000C1ED060A80ED040A9FED230ADFED230ABC
:105A000080ED050AC0ED060ADFED210A34309FED76
:105A1000241AC0ED040ADFED1F0AC0ED050ADFED10
:105A20001E0AC0ED060ADFED1D0AA0F58270C0ED6A
:105A3000040A80ED061A3430C0ED040A80ED061A1F
:105A4000DFED180A34309FED181AC0ED040A80ED1E
:105A5000050A80ED061A3430C0ED040A80ED050A0F
:105A600080ED061A70470000000048434002002005
:105A7000000048C33333F33EA69B443B9A99C14090
:105A800017B7513960E5403F00000000F4FDD43BFA
:105A9000B81EAD3F3D0A873F6F12833BEC5110406B
:105AA00052499D3AEC51183EFAEDEB3900B52DED17
:105AB000048B83B041EC190B00F000FC41EC180B97
:105AC00018EE100A18EE901A8DED008B002818BF02
:105AD0000120084320F00040C0F17F6000F1E04069
